{
  "abi": [
    {
      "inputs": [
        {
          "internalType": "address",
          "name": "priceFeed",
          "type": "address"
        }
      ],
      "stateMutability": "nonpayable",
      "type": "constructor"
    },
    {
      "inputs": [],
      "name": "FundMe__NotOwner",
      "type": "error"
    },
    {
      "stateMutability": "payable",
      "type": "fallback"
    },
    {
      "inputs": [],
      "name": "MINIMUM_USD",
      "outputs": [
        {
          "internalType": "uint256",
          "name": "",
          "type": "uint256"
        }
      ],
      "stateMutability": "view",
      "type": "function"
    },
    {
      "inputs": [
        {
          "internalType": "address",
          "name": "",
          "type": "address"
        }
      ],
      "name": "addressToAmountFunded",
      "outputs": [
        {
          "internalType": "uint256",
          "name": "",
          "type": "uint256"
        }
      ],
      "stateMutability": "view",
      "type": "function"
    },
    {
      "inputs": [],
      "name": "fund",
      "outputs": [],
      "stateMutability": "payable",
      "type": "function"
    },
    {
      "inputs": [
        {
          "internalType": "uint256",
          "name": "",
          "type": "uint256"
        }
      ],
      "name": "funders",
      "outputs": [
        {
          "internalType": "address",
          "name": "",
          "type": "address"
        }
      ],
      "stateMutability": "view",
      "type": "function"
    },
    {
      "inputs": [],
      "name": "getPriceFeed",
      "outputs": [
        {
          "internalType": "contract AggregatorV3Interface",
          "name": "",
          "type": "address"
        }
      ],
      "stateMutability": "view",
      "type": "function"
    },
    {
      "inputs": [],
      "name": "getVersion",
      "outputs": [
        {
          "internalType": "uint256",
          "name": "",
          "type": "uint256"
        }
      ],
      "stateMutability": "view",
      "type": "function"
    },
    {
      "inputs": [],
      "name": "i_owner",
      "outputs": [
        {
          "internalType": "address",
          "name": "",
          "type": "address"
        }
      ],
      "stateMutability": "view",
      "type": "function"
    },
    {
      "inputs": [],
      "name": "withdraw",
      "outputs": [],
      "stateMutability": "nonpayable",
      "type": "function"
    },
    {
      "stateMutability": "payable",
      "type": "receive"
    }
  ],
  "bytecode": {
    "object": "0x608060405234801561001057600080fd5b506040516107c63803806107c683398101604081905261002f91610062565b60028054336001600160a01b031991821617909155600380549091166001600160a01b0392909216919091179055610092565b60006020828403121561007457600080fd5b81516001600160a01b038116811461008b57600080fd5b9392505050565b610725806100a16000396000f3fe60806040526004361061007f5760003560e01c80639e87a5cd1161004e5780639e87a5cd1461011c578063b60d42881461008e578063dba6335f1461014e578063dc0d3dff1461016e5761008e565b80630d8e6e2c146100965780633ccfd60b146100be5780633e47d6f3146100d35780636b69a592146101005761008e565b3661008e5761008c61018e565b005b61008c61018e565b3480156100a257600080fd5b506100ab610269565b6040519081526020015b60405180910390f35b3480156100ca57600080fd5b5061008c6102dc565b3480156100df57600080fd5b506100ab6100ee366004610564565b60006020819052908152604090205481565b34801561010c57600080fd5b506100ab674563918244f4000081565b34801561012857600080fd5b506003546001600160a01b03165b6040516001600160a01b0390911681526020016100b5565b34801561015a57600080fd5b50600254610136906001600160a01b031681565b34801561017a57600080fd5b5061013661018936600461058d565b610405565b600354674563918244f40000906101af9034906001600160a01b031661042f565b10156102025760405162461bcd60e51b815260206004820152601b60248201527f596f75206e65656420746f207370656e64206d6f72652045544821000000000060448201526064015b60405180910390fd5b33600090815260208190526040812080543492906102219084906105bc565b90915550506001805480820182556000919091527fb10e2d527612073b26eecdfd717e6a320cf44b4afac2b0732d9fcbe2b7fa0cf60180546001600160a01b03191633179055565b6003546040805163054fd4d560e41b815290516000926001600160a01b0316916354fd4d509160048083019260209291908290030181865afa1580156102b3573d6000803e3d6000fd5b505050506040513d601f19601f820116820180604052508101906102d791906105cf565b905090565b6002546001600160a01b031633146103075760405163579610db60e01b815260040160405180910390fd5b60005b60015481101561035d57600060018281548110610329576103296105e8565b60009182526020808320909101546001600160a01b0316825281905260408120555080610355816105fe565b91505061030a565b50604080516000815260208101918290525161037b916001916104ea565b50604051600090339047908381818185875af1925050503d80600081146103be576040519150601f19603f3d011682016040523d82523d6000602084013e6103c3565b606091505b50509050806104025760405162461bcd60e51b815260206004820152600b60248201526a10d85b1b0819985a5b195960aa1b60448201526064016101f9565b50565b6001818154811061041557600080fd5b6000918252602090912001546001600160a01b0316905081565b60008061043b83610467565b90506000670de0b6b3a76400006104528684610617565b61045c919061062e565b925050505b92915050565b600080826001600160a01b031663feaf968c6040518163ffffffff1660e01b815260040160a060405180830381865afa1580156104a8573d6000803e3d6000fd5b505050506040513d601f19601f820116820180604052508101906104cc919061066f565b505050915050806402540be4006104e391906106bf565b9392505050565b82805482825590600052602060002090810192821561053f579160200282015b8281111561053f57825182546001600160a01b0319166001600160a01b0390911617825560209092019160019091019061050a565b5061054b92915061054f565b5090565b5b8082111561054b5760008155600101610550565b60006020828403121561057657600080fd5b81356001600160a01b03811681146104e357600080fd5b60006020828403121561059f57600080fd5b5035919050565b634e487b7160e01b600052601160045260246000fd5b80820180821115610461576104616105a6565b6000602082840312156105e157600080fd5b5051919050565b634e487b7160e01b600052603260045260246000fd5b600060018201610610576106106105a6565b5060010190565b8082028115828204841417610461576104616105a6565b60008261064b57634e487b7160e01b600052601260045260246000fd5b500490565b805169ffffffffffffffffffff8116811461066a57600080fd5b919050565b600080600080600060a0868803121561068757600080fd5b61069086610650565b94506020860151935060408601519250606086015191506106b360808701610650565b90509295509295909350565b80820260008212600160ff1b841416156106db576106db6105a6565b8181058314821517610461576104616105a656fea26469706673582212209561a10943a5522c17d86ff8bf01dde285a2430f53d5c93d8bce680a393202c464736f6c63430008150033",
    "linkReferences": {}
  },
  "methodIdentifiers": {
    "MINIMUM_USD()": "6b69a592",
    "addressToAmountFunded(address)": "3e47d6f3",
    "fund()": "b60d4288",
    "funders(uint256)": "dc0d3dff",
    "getPriceFeed()": "9e87a5cd",
    "getVersion()": "0d8e6e2c",
    "i_owner()": "dba6335f",
    "withdraw()": "3ccfd60b"
  },
  "id": 24
}